:08000000803102288731FD2F39
:100F6C0023008D0121000F100D148D1420000D187D
:100F7C00C02FC12FDB2F0D1CC42FC52FC12F22005A
:100F8C000F080139F0000130F0060F087006FE3929
:100F9C0070068F000330F1008A30F0005630890B58
:100FAC00D52FF00BD52FF10BD52F20008D18DF2F5F
:100FBC00E02FBC2F0D1CE32FE42FE02F22000F0895
:100FCC000139F0000130F0060F087006FE3970068A
:100FDC008F000330F1008A30F0005630890BF42F6B
:100FEC00F00BF42FF10BF42FBC2F803102282000D2
:040FFC008731B62F54
:020000040001F9
:04000E00E23FFF3E90
:00000001FF
