:08000000803102288731FC2F3A
:100E000021008F010C1423000C1021008C142300EE
:100E10008C10013020008F000D30F100AF30F00059
:100E2000B630890B112FF00B112FF10B112F00325F
:100E3000023020008F000D30F100AF30F000B630EE
:100E4000890B202FF00B202FF10B202F00320430C4
:100E500020008F000D30F100AF30F000B630890B6C
:100E60002F2FF00B2F2FF10B2F2F003208302000E7
:100E70008F000D30F100AF30F000B630890B3E2FFF
:100E8000F00B3E2FF10B3E2F0032103020008F0070
:100E90000D30F100AF30F000B630890B4D2FF00B64
:100EA0004D2FF10B4D2F0032203020008F000D30E0
:100EB000F100AF30F000B630890B5C2FF00B5C2FE7
:100EC000F10B5C2F0032403020008F000D30F1001C
:100ED000AF30F000B630890B6B2FF00B6B2FF10B9E
:100EE0006B2F0032803020008F000D30F100AF30CA
:100EF000F000B630890B7A2FF00B7A2FF10B7A2F96
:100F00000032803020008F000D30F100AF30F00053
:100F1000B630890B892FF00B892FF10B892F003206
:100F2000403020008F000D30F100AF30F000B630BF
:100F3000890B982FF00B982FF10B982F003220304F
:100F400020008F000D30F100AF30F000B630890B7B
:100F5000A72FF00BA72FF10BA72F00321030200086
:100F60008F000D30F100AF30F000B630890BB62F96
:100F7000F00BB62FF10BB62F0032083020008F0097
:100F80000D30F100AF30F000B630890BC52FF00BFB
:100F9000C52FF10BC52F0032043020008F000D301B
:100FA000F100AF30F000B630890BD42FF00BD42F06
:100FB000F10BD42F0032023020008F000D30F100F1
:100FC000AF30F000B630890BE32FF00BE32FF10BBD
:100FD000E32F0032013020008F000D30F100AF30E0
:100FE000F000B630890BF22FF00BF22FF10BF22F3D
:100FF0000032092F80310228F20120008731002FB2
:020000040001F9
:04000E00E23FFF3E90
:00000001FF
