:02000000FE2FD1
:100F1600831603130610861006110514851405158D
:100F26008515831203130518992F9A2FAE2F051CCA
:100F36009D2F9E2F9A2F0610861006150330F2005D
:100F46008A30F1005530F000F00BA72FF10BA72FD8
:100F5600F20BA72FAE2F831203138518B32FB42FCE
:100F6600C82F851CB72FB82FB42F0610861406116C
:100F76000330F2008A30F1005530F000F00BC12F3B
:100F8600F10BC12FF20BC12FC82F831203130519C2
:100F9600CD2FCE2FE22F051DD12FD22FCE2F061407
:100FA600861006110330F2008A30F1005530F00049
:100FB600F00BDB2FF10BDB2FF20BDB2FE22F831273
:100FC60003138519E72FE82F942F851DEB2FEC2FA0
:100FD600E82F0610861006110330F2008A30F10061
:100FE6005530F000F00BF52FF10BF52FF20BF52F26
:0A0FF600FC2F942F002883018B2F9D
:02400E00EA3F87
:00000001FF
