:08000000803102288731FA2F3C
:100BE60021000D108D100D118D110D128D120D138A
:100BF600080021000F108F100F118F110F128F1286
:100C06000F130800F200612E22000D108D100D1139
:100C16008D110D128D120D17892E22000D148D10B7
:100C26000D118D150D168D160D17892E22000D101E
:100C36008D100D158D110D128D160D13892E220096
:100C46000D108D100D118D110D168D160D13892E8B
:100C560022000D148D100D118D150D168D120D130C
:100C6600892E22000D108D140D118D110D168D1269
:100C76000D13892E22000D108D140D118D110D12DC
:100C86008D120D13892E22000D108D100D118D154C
:100C96000D168D160D17892E22000D108D100D11B3
:100CA6008D110D128D120D13892E22000D108D102F
:100CB6000D118D150D168D120D13892E7208F0006B
:100CC600F1017108003A0319692E892E7008003A5D
:100CD6000319072E013A0319102E033A0319192E88
:100CE600013A0319222E073A03192B2E013A03194A
:100CF600342E033A03193D2E013A0319462E0F3AB4
:100D060003194F2E013A0319582E892E0800F200B6
:100D1600E62E22000F108F100F118F110F128F1257
:100D26000F170E2F22000F148F100F118F150F168D
:100D36008F160F170E2F22000F108F100F158F1101
:100D46000F128F160F130E2F22000F108F100F1178
:100D56008F110F168F160F130E2F22000F148F10E0
:100D66000F118F150F168F120F130E2F22000F1053
:100D76008F140F118F110F168F120F130E2F2200C3
:100D86000F108F140F118F110F128F120F130E2FBA
:100D960022000F108F100F118F150F168F160F17B9
:100DA6000E2F22000F108F100F118F110F128F129E
:100DB6000F130E2F22000F108F100F118F150F1605
:100DC6008F120F130E2F7208F000F1017108003A0E
:100DD6000319EE2E0E2F7008003A03198C2E013AD5
:100DE6000319952E033A03199E2E013A0319A72ECD
:100DF600073A0319B02E013A0319B92E033A03191B
:100E0600C22E013A0319CB2E0F3A0319D42E013AFA
:100E16000319DD2E0E2F080023008F018D018C0192
:100E260021000C148C148531F32587318531FC257E
:100E3600873120000C1C202F212F4D2FF501F50A9C
:100E4600770886318A2687310130F3007308F70761
:100E56001A30F4005E30F3006E30890B302FF30B3E
:100E6600302FF40B302F00320A307702031C3C2F50
:100E76003D2F422FF7010130F3007308F60776087D
:100E86008631052687310A307602031C4B2F4C2FFC
:100E96004D2FF60120008C1C512F522F7A2F023035
:100EA600F500770886318A2687310130F7021A3035
:100EB600F4005E30F3006E30890B5F2FF30B5F2F6B
:100EC600F40B5F2F00320A307702031C6B2F6C2F56
:100ED6006F2FF7010130F602760886310526873135
:100EE6000A307602031C782F792F7A2FF60120001C
:100EF6000C1C7E2F7F2F802F0C080C18832F842F1D
:100F0600E32F0C18872F882FE32F7503031D8C2FD3
:100F16008D2FB72F770886318A2687310230F30066
:100F26007308F7071A30F4005E30F3006E30890B51
:100F36009A2FF30B9A2FF40B9A2F00320A3077026E
:100F4600031CA62FA72FAC2FF7010130F30073085F
:100F5600F60776088631052687310A307602031CA5
:100F6600B52FB62FB72FF60102307506031DBC2F1D
:100F7600BD2FE32F770886318A2687310230F702A4
:100F86001A30F4005E30F3006E30890BC82FF30B75
:100F9600C82FF40BC82F00320A307702031CD42F57
:100FA600D52FD82FF7010130F602760886310526AF
:100FB60087310A307602031CE12FE22FE32FF60178
:100FC6000A307702031CE82FE92F1C2F0A3076021D
:100FD600031CEE2FEF2F1C2F093086310526873193
:100FE600093086318A2687311C2F80310228F50187
:0A0FF600F601F701200087310F2FEC
:020000040001F9
:04000E00E23FFF1EB0
:00000001FF
