:08000000803102288731FD2F39
:100BAE00FF3022008F003330F100BB30F000E03018
:100BBE00890BDF2DF00BDF2DF10BDF2D22008F01C6
:100BCE003330F100BB30F000E030890BEC2DF00B30
:100BDE00EC2DF10BEC2D08000F3022008F0033307E
:100BEE00F100BB30F000E030890BFB2DF00BFB2D3C
:100BFE00F10BFB2DF03022008F003330F100BB30B3
:100C0E00F000E030890B092EF00B092EF10B092EA6
:100C1E000800AA3022008F003330F100BB30F00004
:100C2E00E030890B182EF00B182EF10B182E5530C4
:100C3E0022008F003330F100BB30F000E030890B22
:100C4E00262EF00B262EF10B262E0800DB3022006E
:100C5E008F003330F100BB30F000E030890B352EC1
:100C6E00F00B352EF10B352E243022008F00333051
:100C7E00F100BB30F000E030890B432EF00B432E19
:100C8E00F10B432E08000F3022008F003330F1009D
:100C9E00BB30F000E030890B522EF00B522EF10BD0
:100CAE00522EF03022008F003330F100BB30F000B6
:100CBE00E030890B602EF00B602EF10B602EFF30B2
:100CCE0022008F003330F100BB30F000E030890B92
:100CDE006E2EF00B6E2EF10B6E2E08008130220060
:100CEE008F003330F100BB30F000E030890B7D2EE9
:100CFE00F00B7D2EF10B7D2EC33022008F00333092
:100D0E00F100BB30F000E030890B8B2EF00B8B2EF8
:100D1E00F10B8B2EE73022008F003330F100BB3009
:100D2E00F000E030890B992EF00B992EF10B992ED5
:100D3E00FF3022008F003330F100BB30F000E03086
:100D4E00890BA72EF00BA72EF10BA72E0800033050
:100D5E0022008F003330F100BB30F000E030890B01
:100D6E00B62EF00BB62EF10BB62E0C3022008F00E5
:100D7E003330F100BB30F000E030890BC42EF00BA5
:100D8E00C42EF10BC42E303022008F003330F10010
:100D9E00BB30F000E030890BD22EF00BD22EF10BCF
:100DAE00D22EC03022008F003330F100BB30F00065
:100DBE00E030890BE02EF00BE02EF10BE02E080058
:100DCE00183022008F003330F100BB30F000E030DD
:100DDE00890BEF2EF00BEF2EF10BEF2E9930220038
:100DEE008F003330F100BB30F000E030890BFD2E68
:100DFE00F00BFD2EF10BFD2EDB3022008F00333079
:100E0E00F100BB30F000E030890B0B2FF00B0B2FF5
:100E1E00F10B0B2FFF3022008F003330F100BB306F
:100E2E00F000E030890B192FF00B192FF10B192F51
:100E3E00080021008F0123008D01F03021008D006C
:100E4E0020000D08F2000430F236890B2B2F7208A9
:100E5E000F39F300F4017308F5007408F6005B2FE8
:100E6E008531F32587317D2F8631102687317D2FF1
:100E7E008631752687317D2F8531D72587317D2F98
:100E8E008631AE2687317D2F8631E72687317D2F3D
:100E9E0087318C2787317D2F86314A2687317D2FEA
:100EAE0086312D2687317D2F7608003A0319602F63
:100EBE007D2F7508013A0319372F033A03193B2F7B
:100ECE00013A03193F2F073A0319432F013A031929
:100EDE00472F033A03194B2F013A03194F2F0F3A9D
:100EEE000319532F013A0319572F7D2F1A30F30090
:100EFE005E30F2006E30890B822FF20B822FF30BD5
:100F0E00822F0032272F80310228013022008F00DD
:100F1E003330F100BB30F000E030890B942FF00B32
:100F2E00942FF10B942F033022008F003330F100F9
:100F3E00BB30F000E030890BA22FF00BA22FF10B8B
:100F4E00A22F073022008F003330F100BB30F000AB
:100F5E00E030890BB02FF00BB02FF10BB02F0F300C
:100F6E0022008F003330F100BB30F000E030890BEF
:100F7E00BE2FF00BBE2FF10BBE2F1F3022008F00A5
:100F8E003330F100BB30F000E030890BCC2FF00B8A
:100F9E00CC2FF10BCC2F3F3022008F003330F100DD
:100FAE00BB30F000E030890BDA2FF00BDA2FF10BAB
:100FBE00DA2F7F3022008F003330F100BB30F0008B
:100FCE00E030890BE82FF00BE82FF10BE82FFF3004
:100FDE0022008F003330F100BB30F000E030890B7F
:100FEE00F62FF00BF62FF10BF62F080020008731AD
:020FFE00202FA2
:020000040001F9
:04000E00E23FFF1EB0
:00000001FF
