:02000000FE2FD1
:100F6A008316031305100614861483120313061836
:100F7A00BF2FC02FDB2F061CC32FC42FC02F05087D
:100F8A000139FF000130FF0605087F06FE397F069A
:100F9A0085000330F2008A30F1005530F000F00B82
:100FAA00D42FF10BD42FF20BD42FDB2F8312031380
:100FBA008618E02FE12FBA2F061CE42FE52FE12F28
:100FCA0005080139FF000130FF0605087F06FE39D2
:100FDA007F0685000330F2008A30F1005530F000B8
:100FEA00F00BF52FF10BF52FF20BF52FFC2FBA2F83
:060FFA0000288301B52F61
:02400E00EA3F87
:00000001FF
