:08000000803102288731FD2F39
:100F560021008F010C1423000C1021008C14230097
:100F66008C10F20108307202031CBA2FBB2FBC2F63
:100F7600DB2F0130F000720AC12FF035890BC02F2C
:100F8600700820008F000330F1008A30F0005630E0
:100F9600890BCB2FF00BCB2FF10BCB2F0130F000B1
:100FA6007008F20708307202031CDA2FDB2FBC2F01
:100FB6000630F2007208031DE12FE22FE32FB42F53
:100FC6000130F000720AE82FF035890BE72F700820
:100FD60020008F000330F1008A30F0005630890B74
:100FE600F22FF00BF22FF10BF22F0130F202DD2F70
:0A0FF6008031022820008731AB2F64
:020000040001F9
:04000E00E23FFF1EB0
:00000001FF
