:08000000803102288731FC2F3A
:100F860021000D1423000D1021008D138F01200068
:100F96008F0120000D18D02FD12FED2F0D1CD42F2F
:100FA600D52FD12F0130F0007008F20703307206FA
:100FB600031DDE2FDF2FED2F22000D0D0D0D013944
:100FC600F0000130F006F00CF00C0D0870067F39C9
:100FD60070068D001A30F1005E30F0006E30890B1D
:100FE600F22FF00BF22FF10BF22F0032CC2F8031C3
:0A0FF6000228F20120008731C32F0A
:020000040001F9
:04000E00E23FFF1EB0
:00000001FF
