:08000000803102288731FC2F3A
:100F8C0021008F010C1423000C1021008C14230061
:100F9C008C10293020008F007F30F100D430F0000D
:100FAC003230890BD72FF00BD72FF10BD72F2630E0
:100FBC0020008F007F30F100D430F0003230890BEC
:100FCC00E52FF00BE52FF10BE52F1A3020008F00E9
:100FDC007F30F100D430F0003230890BF32FF00B5E
:100FEC00F32FF10BF32FCF2F80310228F2012000C9
:040FFC008731C62F44
:020000040001F9
:04000E00E23FFF1EB0
:00000001FF
